:020000041000EA
:1000000000B5324B212058609868022188439860DF
:10001000D860186158612E4B002199600221596106
:100020000121F02299502B49196001219960352056
:1000300000F044F80222904214D00621196600F024
:1000400034F8196E01211966002018661A6600F04E
:100050002CF8196E196E196E052000F02FF8012189
:100060000842F9D1002199601B49196000215960AB
:100070001A491B48016001219960EB211966A021F2
:10008000196600F012F800219960164914480160C1
:100090000121996001BC002800D000471248134993
:1000A000086003C880F30888084703B5996A0420EC
:1000B0000142FBD001200142F8D103BD02B5186610
:1000C0001866FFF7F2FF186E186E02BD00000240BE
:1000D000000000180000070000035F00212200005C
:1000E000F4000018222000A00001001008ED00E03C
:1000F00000000000000000000000000074B24E7A12
:1001000000200420F7010010C3010010C5010010F9
:10011000C1010010C1010010C1010010C101001097
:10012000C1010010C1010010C1010010C701001081
:10013000C1010010C1010010C9010010CB01001065
:10014000CD010010CD010010CD010010CD01001037
:10015000CD010010CD010010CD010010CD01001027
:10016000CD010010CD010010CD010010CD01001017
:10017000CD010010CD010010CD010010CD01001007
:10018000CD010010CD010010CD010010CD010010F7
:10019000CD010010CD010010CD010010CD010010E7
:1001A000CD010010CD010010CD010010CD010010D7
:1001B000CD010010CD010010CD010010CD010010C7
:1001C00000BE00BE00BE00BE00BE00BEEFF3058054
:1001D000103800BEF2EB8871A85A0510C85A0510F5
:1001E0003402001090A31AE700201F49086006C8D7
:1001F00081F3088810471D48006800282FD10DA4FE
:100200000ECC002902D000F012F8F9E71849194A7B
:10021000002000E001C19142FCD1174988471749ED
:1002200088471749884700BEFDE701C901C29A42C5
:10023000FBD37047C85A0510C0000020B81A002030
:10024000C07405100000042000000420C0740510D4
:10025000001004200010042000000000704709482E
:1002600005F0D0FC0047000008ED00E0000000D0E1
:10027000D81A00200CF40020A1440010810C0010BA
:10028000C94500105756000006005250ABB36053EA
:10029000F0C1011006005250861C030200C201107A
:1002A000060052505422A29D04C201100500525073
:1002B000DE65F468C0740510F8B5C0460648074905
:1002C000091A8B10C90FC91810B5491003D0044B77
:1002D000002B00D0984710BDB81A0020B81A002093
:1002E00000000000054B10B5002B03D00449054861
:1002F00000E000BFFFF7E2FF10BDC04600000000B5
:1003000094D2002008BB01107047C0460022024B67
:1003100000201A707047C04609F4002070B50B4DDC
:100320002C001834200006F0E9F8094B21001B6866
:100330002800984728001822002106F0D9F8062244
:100340000021200006F0D4F870BDC0462CF2002039
:10035000EC20002010B508000C001BF08FF9034BB7
:1003600002002100180006F0C9F810BD2CF2002090
:100370007047C046012370B51C4D84B02B7002F04D
:10038000EBFF040003F046FB0023194A12184B410F
:10039000802109068B4202D30122164B52420021D2
:1003A0000291019114492000009103F035F8FA21DF
:1003B0001248490006F0A8FA2B78002B0FD0002332
:1003C0000F4EF05C5C1C06F0B3F90D2006F0B0F99E
:1003D0002B78032C05D0002B01D02300F1E704B0CB
:1003E00070BD002BFBD000242300EAE709F40020B5
:1003F00020A10700FFFFFF7F0D03001008BB0110C5
:100400001011002030B5534885B015F0F9FD0028D3
:1004100000D09AE0504806F0D7F915F091FD4F4909
:100420004F48504B504A15F099FD00285FD14F4C72
:100430000021200019F0EEF903280ED00021200041
:1004400019F0E8F94A4B0100180006F05DFAFA20AD
:10045000400003F0D3F9FFF7D5FF464806F0B4F9A2
:10046000454BE35804240393642003F0C7F90121AA
:10047000002015F0CDFD642003F0C0F9013C0021FF
:10048000002015F0C5FD002CEED103A815F0DAFB15
:100490003A4B0100180006F037FA394D280015F0E4
:1004A000D1FB384B0100180006F02EFA281D15F07C
:1004B000C9FB354B0100180006F026FA002009F0B0
:1004C00053F915F0BFFB314B0100180006F01CFA80
:1004D0002F4B00941C002F4AFE21A818042219F06B
:1004E000A7FB21682C4806F00FFA05B030BDFA20B2
:1004F000400003F083F90121002015F089FDFA2066
:10050000400003F07BF90021002015F081FDFA2066
:10051000400003F073F90121002015F079FDFA2065
:10052000400003F06BF90021002015F071FD1B481D
:1005300006F04AF90D4C0021200019F06BF9032850
:1005400000D175E7FFF75EFF72E7154806F03CF94A
:10055000CBE7C0465553000030BB0110F01000201F
:10056000081100201027000004004000FC24002097
:1005700050BB011070BB0110E808000084BB0110E3
:10058000E82D002098BB0110A8BB0110B8BB0110DA
:100590005CF2002014F7FFFFC4BB01103CBB01104C
:1005A00018BB0110F0B54E464546DE465746E0B54D
:1005B00006000D0083B0002A3DD02E4B2E4F9B46E7
:1005C0002E4B2F4E9A462F4B2F4D99462F4B984628
:1005D0003B0057469A465B461C6801F00FFC2C60B6
:1005E000002430603B004946294A0195009401F0FF
:1005F0000DFC0123306801220193514643460094CB
:1006000001F074FA00282ED00624322003F0F6F808
:100610000121002015F0FCFC322003F0EFF8013C32
:100620000021002015F0F4FC002CEED1FA2040004F
:1006300003F0E4F8CFE70324322003F0DFF80121D0
:10064000002015F0E5FC322003F0D8F8013C002131
:10065000002015F0DDFC002CEED12B0030000D4AFF
:100660000D4901F0B9FB03B0F0BCBB46B246A94648
:10067000A046F0BDF0200020D0BB0110A505001061
:10068000B8240020EC3700209824002071030010CB
:100690005B0700001D03001055030010F0B5C646AF
:1006A000012300B5224D84B02B70040002F054FEEB
:1006B000804603F0AFF9FA2206000F0000239200F3
:1006C0002000002105F070FE0B000200802192192D
:1006D0007B4109068B4202D30122164B5242002174
:1006E0000291019114494046009102F095FE2100CB
:1006F000124806F009F92B78002B0FD00023104E7A
:10070000F05C5C1C06F014F80D2006F011F82B7854
:10071000032C07D0002B01D02300F1E704B080BCEC
:10072000B846F0BD002BF9D000242300E8E7C0460E
:1007300009F40020FFFFFF7F0D03001008BB01102C
:100740001011002010B500293DDB1FD12849294A8E
:100750000B681B0C1B0413600B681B041B0C136041
:10076000C21783185340DBB21E2B21D9002838DB77
:100770000BD02149214A0B6840061B041B0C136057
:100780000B685840000C0004106010BD184B490263
:100790001A6851400904174A090C11601B681B0CA8
:1007A0001B041360C21783185340DBB21E2BDDD825
:1007B00011490B68114A1B041B0C13600B681B0CBE
:1007C0001B041360E1E70A4C4B0622685B4253406E
:1007D0001B0C084A1B04136023681B041B0C1360CA
:1007E000BEE7054943060A685B421B0C5340E1E73C
:1007F000980005409810054084000540841005408D
:1008000010B50400417884B0304806F07DF82378B4
:10081000042B13D02E492F4A0B681B0C1B041360AA
:100820000B682D491B041B0C13600B682B4A1B041F
:100830001B0C13600B681B0C1B041360284B1B78EC
:10084000002B0FD06378032B1ED00DD8002B2ED099
:10085000022B07D1E078A3780002184340BA80B297
:10086000FFF71CFF04B010BD042BFBD102210020B8
:100870006156FFF767FF2079E3780002184340BA1A
:1008800080B2FFF70BFFEDE7164B174A1B78174CAA
:1008900013700E235370164B1649186800230294E8
:1008A000039301930093023300F09AFFDAE70221E9
:1008B000032061562056FFF745FF60792379000237
:1008C000184340BA80B2FFF7E9FECBE700BC011045
:1008D00098000540981005408400054084100540AC
:1008E00002F40020EEF30020602200200903001033
:1008F000B8240020F8BB0110F0B54E464546DE4650
:10090000574600230C00E0B5C149C24AC24D0B70E6
:10091000137023782E7887B0B3426DD0FF2B0BD0A5
:10092000837A6E2B4ED0732B0DD007B0F0BCBB4634
:10093000B246A946A046F0BDFE3B0B70837A6E2BF3
:1009400040D0732B5FD1B54B1A78002AEDD101222C
:100950001A70B34BB34F994618680023B24E9846AD
:10096000310092460193002200933B0001F0BEF853
:100970004B46186801F06AFE282002F03FFFA2787B
:10098000AA4CAB4920002A7005F0F0F8A94B1C6076
:1009900001F034FA4B46A84A1860146001924246AE
:1009A000A64B0092A649A74A01F030FA4B461868B8
:1009B0005346019343460122009331003B0001F06E
:1009C00095F8B2E7954B1B78002BAED097481AF0FC
:1009D00055FE0328A9D006239B4A9C4C5370904B8C
:1009E0001670186800239A490393019300930294A8
:1009F000023300F0F5FE98E701231370837A6E2B23
:100A0000E0D0732B1CD0C37A742B00D19AE06378AA
:100A1000012B17D08F4B1B78002B00D185E7982333
:100A20008D4E8E4FF55806222100380005F066FDE8
:100A3000172D40DD06220021380005F059FD74E72E
:100A4000764B84E7A778012F1AD00D2F46D0042FBC
:100A5000E0D1804C2378002B00D166E76423002589
:100A6000794A7B4953706E4B16701868774B039523
:100A7000029301950223009500F0B2FE257054E721
:100A8000E278754E764B00201A70330000219033C7
:100A900018605960002298230021F2503000603223
:100AA00005F026FD6B4B06221F706C4F21003800AD
:100AB00005F024FD00259423F358182B3FD05C1C2F
:100AC0005800C018400006223900301805F016FD05
:100AD00094230135F4500433F550ABE798225E4E71
:100AE000B258002A5BD05F4988460B7064DC5E49CF
:100AF0005E4A0B681B0C1B0413600B685C491B04EB
:100B00001B0C13600B685B4A1B041B0C13600B6807
:100B10004F491B0C1B0413602B784B4A00251370A4
:100B2000042353703E4B1868484B0395029301957C
:100B30000223009500F054FE43461D706AE701242D
:100B40000023BDE7474B1B78002B00D0EDE666780D
:100B5000002E1DD0212E00D0E7E60024464F0422AF
:100B60003B00FE210094454819F062F82B7805AA55
:100B700013703B6856709370294B35491868334B96
:100B80000394029301940323009400F029FECCE621
:100B90000321022061562056FFF7D4FDC5E62D4BF8
:100BA0001B78002B00D1C0E62C4F06222100380014
:100BB000002505F0A3FC7EE790239B4608339A4668
:100BC000264F5B46F258380053009B185B0099464D
:100BD000B1440622494605F091FC06220021484610
:100BE00005F086FC5B46F0581821013005F03CF812
:100BF0005B46F15053465246F3583800013BB35020
:100C0000FFF7FEFD5346F358002B00DC6FE7D8E7F3
:100C1000ECF3002006F40020EEF30020EDF30020BA
:100C2000B824002071030010D0BB0110D837002079
:100C300008BC0110F020002098240020A505001019
:100C4000EC3700205B070000602200200903001041
:100C5000F8BB0110FFF30020381C0020BC2400204A
:100C6000FDF3002002F40020980005409810054094
:100C700084000540841005405CF20020FC24002024
:100C8000F0B5CE464746002480B53D4B85B01C707C
:100C90003C4B04210E201C7001F0EAFC04210F20C3
:100CA00001F0E6FC04210C2001F0E2FC04210D20FF
:100CB00001F0DEFC07220127334B1A80334B013A47
:100CC0001A803A00324B1B689A43324B1A603A0042
:100CD000314B1B689A43314B1A6005F021FEFFF738
:100CE00091FB2F4B2F481900984614F0E5FE002881
:100CF0003ED02D4E1C220021300005F0F9FB01F002
:100D00007DF82A4B2A4D336028604146294A99468E
:100D10000196294B009401F079F801970094012283
:100D2000264B2749286800F0E1FE4A46254B264E0F
:100D30001A60264B264A1A603378002B00D0FEE753
:100D4000244B00249946244B244F9846FFF712FB6E
:100D500028680A234A464146039402970194009466
:100D600000F03EFDFFF706FB3378002BEED0E6E700
:100D70001B4805F029FD0D4B0D4D9946D5E7C046A2
:100D8000FDF3002002F40020D6F30020E0F3002061
:100D90008C0005408C100540780005407810054017
:100DA000EC370020DCBB0110982400200CBC0110A3
:100DB000B82400205B070000A50500107103001097
:100DC000D0BB0110F0200020EDF30020EC2000202B
:100DD000F90800101CBC0110F8BB01100903001039
:100DE000ECBB0110F8B50500802240882B880E006E
:100DF0001B1A5202934201D30133FF33802219049C
:100E00005200090C121A91425FDA9FB2300009F0C9
:100E1000F5FF0400002E00D164E0002854D0002F1C
:100E200052D06988874239D280222B8852025B1ABD
:100E3000934201D30133FF3304319BB23C00691864
:100E40009F422DD203233A00300009F0BBFF002857
:100E50003AD1FF2F49D86B88FB189BB2FF2B01D9E1
:100E6000013BFF3B6B80300009F0C8FF80236F8897
:100E70002C883900E41B5B029C4201D30134FF340F
:100E8000802223041B0C52009C46D21B934200DD9F
:100E90009446604520DB934219DAA4B20431691804
:100EA00001232200300009F08DFF00280CD1FF2C17
:100EB0001BD86B88E418A4B2FF2C01D9013CFF3C7D
:100EC00030006C8009F08CFFF8BD97B29EE780245B
:100ED0006400E41BA4B2E1E7300009F08FFF6988E9
:100EE0000400DBE7024803F073FB024803F070FBE9
:100EF00028BC011048BC011070B504000D0000288A
:100F000032D0C068002811D0002109F0FDFE002178
:100F1000E06809F011FFE068002109F0F9FEE068DF
:100F200009F042FF00281BD10023E360A369002BD6
:100F300004D01A001B681260002BFAD10026210091
:100F40000B48A6610FF05AF8A37A002B07D063690B
:100F5000A672002B03D02A0020002169984770BD9B
:100F6000E06809F015FFDFE7024803F031FBC046F7
:100F7000D90F001088BC011070B504000E00151EBA
:100F80001DD1D4235B00C2500E49300009F0BCFED5
:100F900030000D4909F0BCFE022230000B4909F077
:100FA000BBFE02230A490B48A37222000EF0F6FF93
:100FB0008B239B00E1682580E018FFF713FF2800D2
:100FC00070BDC046751400101D110010A116001050
:100FD000D90F00108813000070B5041E00D193E0F3
:100FE000837A022B02D0032B0ED070BD038801330D
:100FF0009BB29A000380D318632B68DC220044491B
:1010000044480EF0CBFFF0E705268569002D12D08D
:10101000EB89B2B29E4270D3F61A2B68F6B2A36186
:101020006B68002B4ED00321A868494298472D6079
:10103000A569002EEAD16288002ADFD0A388013397
:101040009BB29900A380C91853089B18994243DCAE
:10105000238801339BB299002380CB189A42CDDCC0
:1010600001258B2380219B00E018E25A4388490226
:10107000D31A8B4201D30133FF3380211B041B0C95
:101080004900CB1A012B19DD831840391971531C03
:101090009BB2FF2B34D80021C31819718B23023265
:1010A00092B29B00E252531EFF3B591E8B415B42A2
:1010B0001A408B239B00E25200232380002D00D195
:1010C00093E79BE72D60A569002E9FD1B3E702212E
:1010D000FF31FFF711FF88E702212000FF31FFF702
:1010E0000BFF2388618801339BB29A002380D318B9
:1010F0008B4200DA79E70025B3E79B1AEB819AE788
:10110000002301220371D4E7034803F061FAC046CB
:10111000D90F001088130000A4BC011070B5837AA9
:101120000500032B01D0002070BD0023AC69002610
:1011300003808380002C1FD0002204E0236822005B
:10114000002B19D01C00A389002BF7D1002A1AD03C
:10115000236813602368002B03D0DA89E1895218D1
:10116000DA8163682660002B02D00021A0689847CE
:101170002460AC69002CDFD18B239B00E968E81860
:10118000FFF730FECFE72368AB61E3E7F8B5050072
:101190008B208B24802780002818A4002C5B468895
:1011A0007F02A61BBE4201D30136FF3637048026DC
:1011B0003F0C7600F71B032F1ADD5B000901194372
:1011C000631C07199BB23971FF2B1CD80221C3186D
:1011D0001971A31C9BB2B3420BD18C23022452BAC7
:1011E0009B00EA528B239B00EC52E968FFF7FAFD63
:1011F000F8BDE11CC318170A89B21F71B14209D1A9
:1012000001240271EEE702230371130A03244371E0
:101210008271E7E78B230434A4B241189B000A7162
:10122000EC52B442DED10024DCE7C046F0B55746AC
:101230004546DE464E46E0B515001F00D422D623B3
:1012400004005B005200C35CA25883B018099142AD
:1012500000D909E14E19802E4ADC02284BD00D2816
:1012600038D003285BD0012D42D90C9A0C9B5278C0
:101270001B7812021A4352BA92B2002A38D00123C4
:10128000A921834009010B422DD0A669002E21D04F
:10129000002104E033683100002B1BD01E00B3890D
:1012A0009342F7D1002900D1DBE033680B6033684B
:1012B000002B03D0DA89F1895218DA8100233360D8
:1012C000092800D1BCE07368002B02D00021B0686F
:1012D000984736600025280003B0F0BCBB46B246F4
:1012E000A946A046F0BD062800D19CE0052848D0BC
:1012F00080256D00EFE7A37A022BEBD1012DF7D902
:101300000C9B5D78002DE6D10323A37263692580D1
:10131000002BDFD00022200021699847DBE75B101B
:1013200018400023A94698460190B24230D04B465F
:10133000002B23D043464B449D42D9D3D0235B009E
:10134000E558002D09D07B427B41CE220C995200FA
:10135000A058DBB24A464144A847002FBAD1019BAE
:10136000002BB7D0013B1800431E98412289011D74
:1013700000232000FFF70AFF0025ACE7002FA9D1CA
:10138000D8E7012306212000FFF700FF0025A2E790
:101390000200531E9A415200531C06009D42A7DDD5
:1013A0000C9B0C981B7840781B021B189BB2901C5E
:1013B000281A83429CDC7E20401A821A934297D8D6
:1013C0008022521A991C89B28846002E32D00231EE
:1013D0008A428DD38D428BD341460C9A515C424454
:1013E000527809025218191D89B2884692B20C9996
:1013F00022810231CA18CB5C92469B4600231370AF
:101400004346EB1A9BB29946D2235B00E358002B6C
:1014100005D0CE204A4640002058D219984753465E
:101420005A461A7083E7002307212000FFF7AEFE1B
:10143000002550E701318A4200D259E70022D6E761
:10144000022D00D154E77368002B00D141E70C9ABC
:1014500000219278B068022A00D839E70D39984700
:1014600037E73368A36122E7014803F0B1F8C046CB
:10147000C8BC0110F0B54E464546DE465746E0B5BD
:1014800085B0051E9146039300D1D9E0C06888421B
:1014900000D0D2E0002A00D1C7E0039B002B00D08F
:1014A000B6E0118909F04CFC4B461B89002B00D19A
:1014B0008FE0002290469346A932FF320026002496
:1014C00092465FE042469B1A9BB2B34200D3B3B24E
:1014D0008022121B92B2171C9A4200D91F1C53463D
:1014E000EB58BFB27F2B69D94B4641465B890293CB
:1014F0005B1A9F4262DD9FB229004346AD31FF3146
:101500000919009348463B0009F022FA5346524617
:10151000EB58F61BDB19AB50009033003A0021006A
:101520002800FFF783FE002800D075E0002E4AD186
:101530005346EE504B46029A1B89934249D90023E9
:10154000002490469C4226D22B19AD33FF331B78E2
:101550009B460134E4B2012C10D9A31EDA00D21A42
:1015600059467F230B4093401E435B461B0605D420
:10157000002E3ED05346EB58E31AF6184B461B8913
:10158000434526D9012C02D95A4612069AD553460C
:10159000EB589C42D8D34346414648465F1C09F06D
:1015A000D9FA53465146EB58BFB25A1CEB18AD332B
:1015B000FF336A508346B8461870CAE74346FB18A3
:1015C0009BB2029398E7029B98464B461B89434582
:1015D000D8D8484609F070F86B88002B01D000235A
:1015E000AB80039805B0F0BCBB46B246A946A04606
:1015F000F0BD00232100002228000096FFF716FE10
:101600005346EE504B461B8900244345C3D8E0E7C0
:10161000100009F051F8E4E70700484609F04CF8DB
:1016200039002800FFF768FCD6E780212800490030
:10163000FFF762FC00230393D3E7034802F0C8FFDF
:10164000024802F0C5FFC04610BD0110ECBC0110FD
:1016500070B5041E1CD00023C3608369002B04D026
:101660001A001B681260002BFAD1002521000A48DD
:10167000A5610EF0C3FCA37A002B08D06369A572A4
:10168000002B04D08022200021695200984770BDB1
:10169000024802F09DFFC046D90F001038BD01106E
:1016A000F0B5C64600B5837A04000D00032B03D0C5
:1016B000002080BCB846F0BD8B2380229B00C71859
:1016C0007888E35A52021B1A934201D30133FF3345
:1016D000802219045200090C121A914255DB93B270
:1016E0009846280009F08AFB0600002D6ED00028DD
:1016F000DED04346002BDBD07988404548D98B2388
:1017000080229B00E35A52025B1A934201D30133B9
:10171000FF3304319BB24646791898453AD20323E9
:101720004246280009F04EFB0028C1D14346FF2B5A
:101730004FD87B8843449BB2FF2B01D9013BFF3B31
:101740007B80280009F05AFB8B229200A65A802247
:101750008446788852020300361A964201D3013635
:10176000FF3680213204120C49001400091A8A4203
:1017700000DD0C00A44523DB8A4202DB80267600D4
:10178000361AB6B2191D791804E09BB29846A8E73C
:101790000431791801233200280009F013FB0028D6
:1017A00000D085E7FF2E14D87B88F618B6B2FF2E3E
:1017B00001D9013EFF3E28007E8009F011FB77E74A
:1017C000280009F01BFB7B880600DBE7024802F0DB
:1017D000FFFE024802F0FCFE28BC011048BC0110CC
:1017E000F0B54E464546DE465746E0B585B0009317
:1017F0000EAB1B78804602930FAB89461E78019290
:10180000002800D160E1002900D160E1837A002B3B
:1018100000D156E1080019F031FFB04B83469842E1
:1018200000D94BE1009A83B2944600229A46030005
:101830000392029A02336344002A6BD1802252023F
:10184000934200D33AE1414644469D319BB21C3459
:10185000FF3103E01034A14200D10DE12268A24221
:10186000F8D100222260109A8B206260119A8000C9
:10187000A260039A591CA2811A00404489B2D2097D
:10188000013192B289B2002AF9D18B2245468027D4
:101890009200AD5A42887F02AA1ABA4248D217046F
:1018A00080223F0C5200D71BB94200DDE3E0411912
:1018B0008C46029901354F0006210F400539314011
:1018C000302639433143664631710021FF26ADB2DF
:1018D000AE42494149420D4094467F21994292418E
:1018E0000F005242D2011F403A43461932716A1C1E
:1018F00092B2624507D0DB09AE1C9BB2B6B2002B98
:1019000019D01500EAE7DB099BB2002B00D19DE05E
:101910000025E3E74246D28802330132111C92B21D
:10192000002A00D101218AB203924246D18085E784
:101930000132FF32B3E78B274146BF00CA535146FD
:101940008218090A1171664500D088E05B46037170
:1019500001238B264246B60093535A46002A12D0E2
:101960000021802700228C467F0049468D5CC118EB
:1019700001339BB20D71BB4255D0414601328B53AE
:1019800091B28A45F1D8029A002A11D0039DC2185B
:101990002D0A15718B2180255A1C92B289006D0089
:1019A000AA4200D07FE0039B4246037101235352B9
:1019B000019A002A18D0009A002A15D000218B27FE
:1019C000802600228C46BF00760001998D5CC118EC
:1019D00001339BB20D71B3422ED041460132009DBE
:1019E000CB5391B28D42F0D8434699690023002928
:1019F00054D0CA89D3180A0009689DB21BB20029C5
:101A0000F7D11E2B66DC1E235B1BE381146043466B
:101A1000D968FFF7E7F9002005B0F0BCBB46B24635
:101A2000A946A046F0BD434661460132995393B2A0
:101A30009A4524D9002398E7434661460132D95399
:101A4000009993B29942CFD90023BEE75B468C221E
:101A5000414602255BBA92008B522B0079E75A4629
:101A60008619327142460335ADB2D553FF2D00D9E8
:101A70006FE72B006DE7246001204042CCE7029B1A
:101A8000002B95D0039B41465ABA8C239B00CA5227
:101A900002238B22414692008B5289E71E23E38169
:101AA00043469C61B3E7039E023382189BB21671D2
:101AB000AB42EED100234246535279E71020404218
:101AC000AAE70B204042A7E7054802F081FD054840
:101AD00002F07EFD044802F07BFDC046FDFF0000E1
:101AE00058BD011078BD011094BD0110F0B54E46EF
:101AF0004546DE465746E0B585B01C000EAB40CBF0
:101B000080461B78894603920193002800D13EE16C
:101B1000002900D13EE1080019F0B0FDA94B834631
:101B2000984200D92DE183B29A46019B021D591EAD
:101B30008B41D21880235B029A4200DB21E1039B98
:101B400092B2022B00D928E143469B7A002B00D1A8
:101B50001AE14346DB880133191C9BB2002B5FD08E
:101B60008BB202934346D980414645469D311C3590
:101B7000FF3103E010358D4200D1EBE02B68AB4222
:101B8000F8D100238B202B60029B8000AB811300D7
:101B9000511C6C60AE60404489B2DB0901319BB2DC
:101BA00089B2002BF9D18B23444680269B00E35A4F
:101BB000448876021C1BB44234D226048024360C9E
:101BC0006400A61BB14200DDC3E00199A4464E1E8D
:101BD000B1411F264942B143A231C61831710021DB
:101BE000FF2601339BB29E42494149420B407F216F
:101BF0009142A4410F006442E40117403C43C618DF
:101C000034715C1CA4B2644505D09E1CB6B2D209E6
:101C10000BD02300ECE7D20900D181E00023E7E7F5
:101C200001219DE70134FF34C7E78B21424689003B
:101C30005452029A0419120A2271664561D1029B1C
:101C4000037153461B0A43715B46837103238B2642
:101C50004246B60093535A46002A22D000218027DC
:101C600000228C467F0049468C5CC11801339BB230
:101C70000C71BB420FD1434661460132995393B276
:101C80009A456AD9002349468C5CC11801339BB23E
:101C90000C71BB42EFD0414601328B5391B28A4561
:101CA000E1D8019A002A0DD00399C218117180223F
:101CB00001339BB25200934255D18B2300224146FF
:101CC0009B00CA52434699690023002954D0CA890F
:101CD000D3180A0009689CB21BB20029F7D11E2B49
:101CE0005EDC1E231B1BEB8115604346D968FFF7A2
:101CF00079F8002005B0F0BCBB46B246A946A04624
:101D0000F0BD029A033386199BB23271FF2B12D9B0
:101D10005B468C2241465BBA92008B52022396E7C7
:101D20008B21434689005A528C224146029B9200E5
:101D30005BBA8B5202235446C218240A14718022C3
:101D4000591C89B2520091422DD15B460371012387
:101D50007DE72D6001204042CCE7019B002BB1D0F4
:101D6000039B037101238B22414692008B52434611
:101D7000996900230029AAD11E23EB8143469D6166
:101D8000B3E710204042B5E70B204042B2E70E48CF
:101D900002F01EFC0D4802F01BFC0D4802F018FC7E
:101DA0000C4802F015FC5C4641180C718B2144462E
:101DB00002339BB289006352934200D047E700236D
:101DC00045E7C046FDFF0000CCBD0110ECBD011091
:101DD0000CBE011094BD011010B5002808D0D0240D
:101DE00064000251D22252008150083A835010BD43
:101DF000014802F0EDFBC04624BE0110CC2110B515
:101E00000120890008F022F810BDC046F0B54E460A
:101E10004546DE465746E0B587B01D00119B041EBF
:101E200099460091039201D100F000FC002901D1F4
:101E300000F0F4FB4B46002B01D100F0FDFB1B68CA
:101E4000002B01D100F0F5FB837A9B46002B00D0DC
:101E5000AAE3D227CE267F00C25976009246825945
:101E6000A133FF330192CC229846C358002192003F
:101E7000029304F03DFB4146029B019A6350534696
:101E8000E351109BA25123614B4665619B89A219C6
:101E9000638023001C331B6010339342FBD14B46FD
:101EA0001869002800D1BBE05E69002E00D1B7E0C0
:101EB0001A7E1823D2001340042213439B464B463C
:101EC0005B7E002B03D05A4620231A43934619F019
:101ED000D5FB431E0500FE2B00D928E2C3B230001B
:101EE000049319F0CBFBFF2800D920E2C3B205937D
:101EF0004B460E352D185868ADB2002800D198E039
:101F000080235A461A43934619F0B8FBD54B421E1C
:101F10009A4200D90BE283B2029380230235ADB21C
:101F20002D185B029D4200DB01E24B469868ADB282
:101F3000002800D184E040235A461A43934619F002
:101F40009DFBC84B421E9A4200D9F0E183B2019337
:101F5000802302352D185B029D4200DBE7E1ADB224
:101F60004B46186819F08AFB802380465B02984232
:101F700000D3DCE1023545449D4200DBD7E1ADB240
:101F80002E006B1C9BB201339BB2F609FBD180275C
:101F90007F00BB4200D9F6E2002009F00FFAE060B2
:101FA000002800D1EFE2210008F0AAFE0022AE498D
:101FB000E06808F0D1FE8246002849D1AB4BE068CA
:101FC000039A009908F0D6FE8246002840D1A8491D
:101FD000E06808F0B1FE01238B221020A37292006A
:101FE000A35AA218D1180871FF2101339BB299425C
:101FF000764180398C4676423340AC45894166460D
:102000004942C9012E403143D0180171591C89B28F
:10201000B94218D0981C80B2ED0926D00B00ECE72D
:102020000023059304934B4658680A25002800D0E6
:1020300066E7002302934B469868002800D07AE7B1
:10204000002301938CE7ED0900D11BE10023D4E7C5
:10205000E06808F09DFE0023E360504607B0F0BC46
:10206000BB46B246A946A046F0BD8B26B600A1539A
:1020700051180D71B84200D0B3E08C237D499B000C
:10208000E15202235120D1180871802101339BB203
:1020900049008B4200D0B1E08C23022076499B009E
:1020A000E15202235E468B211E43434604278900EA
:1020B00000969EB2131860521F718023451CADB26A
:1020C0005B009D4200D0AEE0009B13710123635280
:1020D0004B469B899371180A0323507163524B46F8
:1020E00004211B689C46330AD37140464B1C51188F
:1020F00008718B219BB2890063522D39FF398B42C5
:1021000000D100238B27BF00E353002E20D0802076
:102110004000002180466046455CD01801339BB2E8
:10212000057143450FD100230131E3538BB2B34214
:1021300000D3F1E000236046455CD01801339BB228
:1021400005714345EFD0013188B2E3538642E2D8AE
:102150005946490700D54EE16946097849B2002938
:1021600000DAFFE15946490600D476E7494601986E
:102170008F68000AD11808718020591C89B240006C
:10218000814200D0E8E0019B137101238B26019965
:10219000B600A353002900D15FE7802040008446A9
:1021A000002000218046D0187D5C01339BB2057170
:1021B00063450FD1434601310198A3538BB2984236
:1021C00000D84AE700237D5CD01801339BB205712B
:1021D0006345EFD00131019D88B2A3538542E2D817
:1021E0003BE70421033310189BB20171A353FF2B6B
:1021F00051D98C2321499B00E15202235420D1184C
:102200000133087198B280235B00984252D10223B7
:102210005946194343469EB28C2301200225009162
:1022200017499B00E152009B55192B718B2180258A
:10223000831C9BB289006D00AB4200D0D5E1002326
:1022400063524B468C209B8980005BBA2352022349
:1022500063524B461B689C46330A93714346D371C5
:1022600004234FE7FEFF000024DF0110790F001068
:1022700051160010044D0000545400004D51000050
:10228000540400008C2380219B00C900E1520223EA
:10229000D539FF3963524D20D1180871802101339F
:1022A0009BB249008B4200D0ECE68C230220DD4932
:1022B0009B00E1525421131819718023013080B220
:1022C0005B00984200D0ECE65946FE3B194343467A
:1022D0009EB2042313718B235171009102219B0044
:1022E000E1524B4603279889030A9371D1198B2336
:1022F000087180217D1CADB29B0049008D4200D049
:1023000061E10021E1524B461B689C46330A137180
:10231000434653710223F5E65B465B0700D50AE1AD
:102320006B461B785BB2002B25DB00231AE70623E4
:102330005B429A4691E66B461B785BB2002B00DA53
:1023400036E15B465B0600D487E64B469F68019BFF
:1023500001211B0A137100230198511808718B2168
:1023600002339BB289006352591EFF39481E8141D6
:1023700049420B400AE74B465F68029B01211B0A5A
:10238000137100230298511808718B2102339BB2FC
:1023900089006352591EFF39481E814149420B4052
:1023A0008B260299B600A353002900D1DAE68020DB
:1023B00040008446002000218046D0187D5C013317
:1023C0009BB2057163450FD1434601310298A35377
:1023D0008BB2984200D8DAE000237D5CD01801333C
:1023E0009BB205716345EFD00131029D88B2A353C2
:1023F0008542E2D8B6E64946096900208846694622
:102400000D8A8B2189008C46D118087180215E1CB1
:10241000B6B249008E426AD1049B02271371012390
:1024200003938B2189006352002D1CD08B218900DE
:102430001F0000202B008C464546295C88464646F6
:10244000D1190E718026791C89B27600B14244D030
:10245000664601300237A15386B20391BFB29E4255
:1024600002D20F00E9E719004B465B6900209C4649
:102470006B469E8A039BD318187180235B009F4292
:1024800000D09EE0059B137101238B27BF00E3530F
:10249000002E00D160E6802040000021804660468A
:1024A000455CD01801339BB2057143450FD1002321
:1024B0000131E3538BB2B34200D33CE700236046C3
:1024C000455CD01801339BB205714345EFD0013113
:1024D00088B2E353B042E2D33EE6614600260130C3
:1024E000665281B2994233D200210F00A5E7049FC2
:1024F00096193771664602339BB2A3538B4223D1A0
:102500000023A053002D91D14B465B6901279C46C7
:102510006B469E8A002313718B21059BD7190235C8
:102520003B718900ABB26352FF20002198424941C0
:1025300049420B40A9E74B461B6904999846002382
:10254000137102238DB251715F1C0393BFB268E710
:102550004B465B6905999C4600238EB213715171FD
:10256000022392E7494602984F68000AD118087181
:102570008020591C89B24000814200D002E7029BB2
:10258000137101230CE701235B429A4665E55B4624
:102590005B0600D461E54B468C219F68019B890056
:1025A0005BBA63520223F1E50A235B429A4654E583
:1025B0004B468C215F68029B89005BBA6352022301
:1025C000EEE60D00A8E7E5524B461B68B91C9C4699
:1025D00080235519300A89B228715B00994200D0D6
:1025E00083E54346137101238CE5033087B24846E7
:1025F00063528089D518030A2B7180235B009F42A8
:1026000000D073E60123107163524B461B689C4651
:10261000330A537143469371032373E5024801F073
:10262000D7FFC0465154000070BE0110044801F0AD
:10263000CFFF044801F0CCFF034801F0C9FFC046BA
:102640004CBE0110C4BE011098BE011010B5002888
:1026500009D0837A002B00D110BD002300218372A2
:10266000FEF74AFCF8E7014801F0B2FFF8BE01109E
:10267000094A10B594464024830063441A68C00098
:102680006240803414408022520113431C60034B8B
:102690009C466044416010BD04C0014000400140C0
:1026A000074B80009C4660440368C90092000A43BF
:1026B0005A400C231A4080235B0103431A60704781
:1026C00004C00140084B80009C466044002905D0AE
:1026D000802302229B0103431A607047C023022219
:1026E0009B0103431A60F8E704C00140D0231B0696
:1026F00030B505001C681048631E9C4184460720C5
:1027000030236442284023408000EC0881402000B0
:102710000A4D3C3063448000A40041511B19002A3B
:1027200004D0802292011343196030BDC02292016F
:1027300013431960F9E7C0460041014000400140E1
:10274000D023F0B5C6461B0698461B680C4F9B006D
:102750001600FA5804000D0000B5104209D11443C8
:1027600029003200FC500D2000F072F980BCB84600
:10277000F0BD01F045FF43461B689B00FA58EEE7A9
:1027800020F2002010B504000D2000F053FAD023F1
:102790001B061B6802499B005A58A2435A5010BDA1
:1027A00020F200200123D02283401206936293611D
:1027B000094A40219446830063441A68C0004A4095
:1027C000803111408022520113431960034B9C4613
:1027D000052360444360704704C00140004001404D
:1027E000024B18688007C00F7047C04600C0064003
:1027F000EFF3108072B6034A1368002BFCD0BFF3CE
:102800005F8F70472C0100D0BFF35F8F0022024B17
:102810001A6080F3108870472C0100D070B5EFF378
:10282000108C72B60D4D2B68002BFCD0BFF35F8F60
:102830000724CB08C618C05C01230C40A3401C0031
:102840000440034207D118433070BFF35F8F2C6000
:102850008CF3108870BD100001F0BAFE2C0100D07E
:10286000F8B54746CE46884680B5EFF3108C72B671
:10287000214D2C68002CFCD0BFF35F8F9A422CD8DE
:10288000D4080727055D061901241740BC402C42D7
:102890001FD007210127894609E0D408055D0619E4
:1028A0004C4639001440A1400C00294211D001329D
:1028B0009342F2D201204042BFF35F8F00220E4BC1
:1028C0001A608CF3108800280FDBC0BCB946B046F4
:1028D000F8BD254310003570EEE7BFF35F8F00238E
:1028E0002B608CF31088012040424346002BECD033
:1028F000089801F06DFEC0462C0100D030B5EFF312
:10290000108C72B60A4C2368002BFCD0BFF35F8F8B
:10291000072301220B409A40CD08435D9343435562
:10292000BFF35F8F002323608CF3108830BDC04657
:102930002C0100D00021044B044ABFF35F8F02C377
:102940009342FAD17047C046000100D0800100D008
:10295000044A1078431CDBB2172B00D910231370E4
:102960007047C0461411002010B5064B064C82B0CB
:102970000100009318221F232000FFF771FF02B00F
:1029800010BDC04618BF0110B424002001238340AD
:10299000002904D0034A1360034A13607047034AB6
:1029A0001360FBE780E200E000E100E080E100E08E
:1029B00001238340014A13607047C04600E200E0F3
:1029C000084B10309B688000C358002B07D0064A84
:1029D00000209B1A2F229A424041C0B2704700202B
:1029E000FCE7C04600ED00E018110020024B10305B
:1029F0009B688000C058704700ED00E070B50D0086
:102A0000EFF3108672B60F4A1368002BFCD0BFF3A9
:102A10005F8F0D4B10309B6884001B590B4A93420B
:102A200003D09D4201D001F0EBFD074B9B681D5187
:102A3000BFF35F8FBFF35F8F0022024B1A6086F3F4
:102A4000108870BD240100D000ED00E0CD01001021
:102A5000F0B557464E46DE464546E0B585B0060021
:102A600001911700EFF3108B72B6664A1368002BC2
:102A7000FCD0BFF35F8F0025634B5D579A46002D56
:102A800000DAA2E06B00614C02935B199B00984650
:102A9000A146C1444B4652469B79103613705C4B9D
:102AA000B2009B68009299580B1B2F2B34D9594BBD
:102AB000994200D0A2E0029B42469C46564B654498
:102AC000AD006353554B0232A218043B9B1A1B0501
:102AD000534A5B0D651913436B80524B0121AB8048
:102AE000FF23AB71019BEF71AB604B460B431900A9
:102AF000474B009A9B689950BFF35F8FBFF35F8F7E
:102B00000022404B1A608BF3108805B0F0BCBB4626
:102B1000B246A946A046F0BD01200A008243D379FF
:102B2000BB422FD845464E4613003F491B1B5B4115
:102B30005943090D384B6353384B02356519043B33
:102B40005B1B1B05364D5B0D2B4373800426B4467F
:102B5000E044131F44441B1B1B055B0D1D434B46E8
:102B6000997101999D8099604946DF712F4B01430E
:102B70001360BDE75800C01880002018C679BE4217
:102B800029D902000623D356002BF3DA101D824602
:102B9000274803900426504676424E44361A3005A4
:102BA000400D844666461E48957106439680029AFB
:102BB00094466544AA00A4181C4AA3712260019B94
:102BC000039AE771A280A36092E701F019FD002546
:102BD00053465D5756E7101D824690884005001504
:102BE00084464046D444664604302018301AE02615
:102BF0000005400D360230430390CBE701F000FDA5
:102C000059E7C046240100D0F8F300201811002035
:102C100000ED00E0CD01001000A1FFFF48110020F1
:102C200000E0FFFF01BDFFFFAAAA000001488047A6
:102C300001BD0000F0B5DE4657464E464546E0B5BC
:102C40000C0083B0EFF3108972B6584A1368002B5A
:102C5000FCD0BFF35F8F564B9A68030010339F0080
:102C6000D559544A9046954232D0A54243D0524E4F
:102C7000AA1B2F2A2CD801228240924651464F4A45
:102C800012681140019151464D4A1160BFF35F8FA8
:102C9000EFF305829346002A33D101232A009A4399
:102CA00093689C4208D177E04B005B189B00F318B7
:102CB0009968A1422AD01A00062151560029F3DA58
:102CC000019B002B19D052463E4B1A603B4B1A60B9
:102CD000374B9B68DD51BFF35F8FBFF35F8F0022DF
:102CE000324B1A6089F3108803B0F0BCBB46B24681
:102CF000A946A046F0BD1500EAE75246304B1A60DF
:102D0000E6E79342C9D001F07BFCC6E7062159569D
:102D1000002921DB4A005018800034188046A06842
:102D20009860E079D871062020569871002824DB3D
:102D3000A488F01A6405241544440019E024000511
:102D4000400D2402204398801F4B5218187892009F
:102D5000B21890711970B3E7594600290FD1FF31AD
:102D600091711A49918018490A789A71184A9B1BE7
:102D70005B415A43120D0A70A2E71648E3E7164A70
:102D80001649D21A083A5002400D0143998014495D
:102D900052080A43DA8093E70621515613000029AE
:102DA000B8DA5A46002AEAD14546DCE7240100D0C9
:102DB00000ED00E0CD0100101811002000E100E05E
:102DC00080E100E080E200E0F8F3002001BDFFFFB9
:102DD000AAAA000001BD00005211002000F0FFFF70
:102DE00000F8FFFF032310B50400074A184094467B
:102DF000C0009C43FC3383406444226881409A4372
:102E000013000B43236010BD00E400E070B5EFF346
:102E1000058101240443EFF3108C72B6214A136834
:102E2000002BFCD0BFF35F8F1F4B05001F4AED1A2C
:102E30006D416A43120D1E4D8900AE6852B276583C
:102E4000A6421CD00621595691421CD01221595637
:102E5000914222D01E215956914220D02A21595602
:102E60000324914210D0134B19781A708171BFF36B
:102E70005F8F00220B4B1A608CF3108870BDAB681B
:102E80000D4C5C50EFE700246100091989005B18C4
:102E9000FF21997109499980E5E70124F4E70224AB
:102EA000F2E7C046240100D018110020AAAA0000B1
:102EB00000ED00E0F8F30020CD01001001BDFFFFA0
:102EC000054B064A1360064A136053609360D36053
:102ED00013615361936170478080808000E400E05B
:102EE00004E400E01F2110B5091A0248FFF706FDAF
:102EF00010BDC04608F4002010B5084B084C82B045
:102F000001000093002205232000FFF7A9FC002800
:102F100001DB1F23181A02B010BDC04634BF0110D8
:102F200008F4002070B504000E001500FFF710FD36
:102F30000100200000F006F8A680E580BFF35F8F57
:102F400070BDC046024B9C466144890001607047D9
:102F50004000003410B50400FFF7FAFC0100200027
:102F6000FFF7F0FFFF232371BFF35F8F10BDC04653
:102F700010B50400FFF7ECFC01002000FFF7E2FFB2
:102F8000FF23A380BFF35F8F10BDC04610B50400C0
:102F90000120FFF7E9FC044B9C4660448000206060
:102FA000BFF35F8F10BDC04640000034034B9C460A
:102FB000614489000160BFF35F8F704740000034B7
:102FC00083680B4810B584466144624412010901CC
:102FD00059189B185C684A680120944201D802D0B5
:102FE0000020C0B210BD1A680B689A42F9D8F7E702
:102FF000FFFFFF0F0A4B1968EFF3108072B60A68E3
:10300000002AFCD0BFF35F8F1B68BFF35F8F0022E5
:103010001A6080F3108840BF002000217047C0462E
:1030200068F30020F8B5574645464E46DE46E0B503
:1030300099460CAB1C780DAB1B78070090469A465E
:103040000568002C44D1AC7B002C3BD0660029687D
:103050003619033E89194B78AB73002B00D1EB7303
:1030600000238B704B700B702E4BE218BB68120163
:103070009B1842461A604A465A600A9A9A600B9A0E
:10308000DA6000238B704B700B706B7B9B46002BC0
:1030900032D022005946A8686B68984700281DD096
:1030A0005B46584629685B005B448E19033BB07051
:1030B000CA18CB5C002B00D073705B4614706B7326
:1030C0005C451AD0F0BCBB46B246A946A046F8BD46
:1030D000660029683619033E8919C5E75B465B001F
:1030E0002A685B44033BD3189C709119925D002AB7
:1030F00000D05A705B460B706C7342464B46387D6D
:1031000000F0E8FC051E02D05346002B04D00E9BB5
:10311000002BD7D01D70D5E72100386800F060FF84
:10312000F5E7C046FFFFFF0FF0B5DE4657464E46B7
:1031300045460023E0B58BB00893694B8200D45814
:1031400000239B46099000F065FC626806000F00B2
:10315000EFF3108572B61368002BFCD0BFF35F8FBE
:1031600023689C465B7B9946002B00D168E0A268EF
:103170005C4B90464B441B01984443461A685B687D
:1031800010001900801BB941002900DC62E0099899
:1031900000F0A0FC0023002298460023069207932B
:1031A00000239A466368BFF35F8F5A461A6085F31F
:1031B00010885346002B08D10028C4D10BB0F0BCB6
:1031C000BB46B246A946A046F0BD089B4146180240
:1031D0004B461843D047626806000F00EFF3108596
:1031E00072B61368002BFCD0BFF35F8F002F4FDB4C
:1031F00033003B4302D02369002B65D12368D97B80
:10320000002906D01A684800411852184946033A66
:1032100051709A7B002A01D14A469A734A46DA7362
:103220004B46E168013BCA5C0132CA545B462361EC
:103230006368BFF35F8F5A461A6085F3108882E790
:1032400000230022984600230692079300230020C3
:103250009A46A7E7002902D1002800D097E700216D
:10326000604600F03BFE43461A685B68069207938F
:1032700043469B689A464346DB689846E3684B445E
:10328000013B1B7808931B0203432361002089E75D
:103290002369002BB2D0069A079B8021921BBB4169
:1032A00009068B4202D301220F4B52425946049128
:1032B0000121039149460291414601915146200066
:1032C0000091FFF7AFFEB1E700F0A4FB32003B0036
:1032D00012184B41802109068B42E7D3E3E7C04631
:1032E000B4D20020FFFFFF0FFFFFFF7F10B5144C8B
:1032F0006368002B04D00A211248FFF723FE10BD9B
:103300002300114A1021206800F0F2FC032000F095
:1033100059FB032000F048FC03200C4900F094FB0B
:10332000FFF716FB0A4B9C4603232375D0231B068D
:103330001B6860446375074B80006060DC60DAE7FF
:103340006011002068F30020C12F00102931001007
:1033500040000034B4D200200048704760110020C3
:1033600070B50500182003F06DF81649040002003E
:10337000280000F089FC10212060280003F080F86C
:103380000121A060280003F07BF8E060012000F03C
:103390002FFB050000F008FC28000B4900F054FB4F
:1033A000FFF7D6FA094B25759C46D0231B061B68F0
:1033B00060446375064BAD0080006060EC502000F7
:1033C00070BDC046C12F00102931001040000034EC
:1033D000B4D200200E4B10B50400984217D0002143
:1033E000027D0C4B9200D150006800F09FFC002140
:1033F000207D00F029FB207D00F0F0FAE06803F06A
:103400005FF8A06803F05CF8200003F059F810BDE5
:1034100060110020B4D20020F0B557464E46DE467B
:103420004546E0B585B0019310AB1B7807000393C8
:1034300000239A46994600927A68EFF3108B72B691
:103440001368002BFCD0BFF35F8F3D68AC7B002C72
:1034500000D17CE066002B683619033E9B195A7830
:10346000AA73002A00D1EA734A4AA118BA6809016E
:10347000521800980199106051600E9991600F994F
:10348000D1604A469A705A701A706B7B9846002B2E
:1034900000D16CE022004146A8686B68984700287C
:1034A00057D04346404629685B0043448E19033B8E
:1034B000B070CA18CB5C002B00D0737043461470F8
:1034C0006B73444554D0FB681B19013B18787B682B
:1034D000BFF35F8F4A461A608BF31088002C56D0DA
:1034E0005346002B08D10002204305B0F0BCBB4678
:1034F000B246A946A046F0BD039B002B45D00E9BCB
:1035000000200F999847030004000D000B433CD0A6
:10351000002911DA009A019B121BAB410092019322
:1035200080221206934204D301231B4C5B4200937A
:103530000194039B9A467FE700F06CFA80222418DE
:103540004D411206009401959542F2D3ECE700201C
:10355000BDE743465B002A684344033BD3189C7095
:103560009119925D002A00D05A7043460B706C731B
:10357000387D009A019B00F0ADFA82460028A2D067
:103580002100386800F02CFD9DE70020ADE7012008
:103590004042AAE7FFFFFF0FFFFFFF7FF0B557464E
:1035A0004546DE464E46E0B59846170083B0050016
:1035B0004268EFF3108A72B61368002BFCD0BFF399
:1035C0005F8F2E68B47B002C3ED063001B19033B39
:1035D0009C463268019362445378A346B373002B30
:1035E00000D1F373354BE118AB6809015B18414614
:1035F00059600C991F6099600D99D96000239370F0
:1036000053701370737B9946002B49D022004946B2
:10361000B06873689847002833D04B465B00316828
:103620004B44033B9C46CA184B46019808188370CC
:103630006346CB5C002B00D043704B4614700020D7
:1036400073734C4532D12CE0002300269B460020AA
:103650006B68BFF35F8F00221A608AF31088002C1A
:1036600029D0002809D15B463002184303B0F0BCD2
:10367000BB46B246A946A046F0BD287D00F0B2FA8E
:10368000F1E74B465B0032684B44033B0198D3188B
:103690009C701118125C002A00D05A704B460B70B7
:1036A00074733A004346287D00F014FAEB681B1946
:1036B000013B1E78CCE701204042D7E7FFFFFF0F18
:1036C000F8B50400002931D04268EFF3108572B6D6
:1036D0001368002BFCD0BFF35F8F2068CEB2437B12
:1036E000B34215D0FF220A4003685700BA189B184E
:1036F000033B9B78002B0BD12269914218D000200C
:103700006368BFF35F8F00221A6085F31088F8BDED
:10371000FF230A0A1940E368D2B25B18013B19780B
:103720009142ECD1310000F05BFCE9E70020EEE7CC
:103730002361E4E7407D7047F0B504000D000626E4
:103740007642F717C64636196F4100B584B08F42EE
:1037500014D811D000F05EF932003B00121A8B41F0
:10376000002B15DC002B3ED02000290000F05CF976
:1037700004B080BCB846F0BD8642EBD900260027D5
:1037800000F048F932003B00121A8B41002BE9DDB2
:10379000002302930193154B3200009314483B0021
:1037A000FFF73AFE0028DFDB00239846BC46114AAB
:1037B000114F7B6A9C4504D8B96A8E42D4D99C4586
:1037C000D2D11168EFF3108072B60B68002BFCD0D9
:1037D000BFF35F8F1368BFF35F8F4146196080F3BB
:1037E000108820BFE5E7002ABED0D1E7F52F0010F2
:1037F0006011002068F300200040054070B506000D
:1038000000F008F9FA2204000D0000233000002126
:10381000920002F0C9FD8023001969411B069942FC
:1038200002D3012002494042FFF786FF70BDC04627
:10383000FFFFFF7FF0B5EFF30583CE46474680B527
:1038400005000C0085B0002B12D02C4A0020536AD2
:103850009C4203D8926A0130AA4204D305B0C0BC8E
:10386000B946B046F0BDE31A5A1E9341D8B2F5E707
:10387000234E02930193234B0200009330000B0070
:10388000FFF7CAFD031EE0DD20BF7168EFF310876C
:1038900072B60A68002AFCD0BFF35F8FDAB2944692
:1038A0003068427B62451CD0FF2201681A4089467D
:1038B000510088464946904441440339897800299B
:1038C00012D0F1681B0A8A18013A1278DBB29A42C8
:1038D0000FD07368BFF35F8F00221A6087F31088E0
:1038E000B3E7FF221A40ECE732699342F1D131612C
:1038F000EFE7614600F074FBEBE7C046004005408F
:1039000060110020F52F0010F0B5EFF30582D646C8
:103910004F4646461000C0B51038EFF3108872B617
:10392000214C2368002BFCD0BFF35F8F01231900CB
:1039300081401E4D1F006963AA461D4D29601D4D23
:103940002E78AC463500C5402F402B4209D1BFF33D
:103950005F8F276088F31088E0BCBA46B146A8465E
:10396000F0BD53465F6A144B8500EB589F420ED35F
:103970006246124B8E43EB581670BFF35F8F0022E6
:10398000226088F31088002BE6D09847E4E70C4BC0
:1039900092009C46624413681360BFF35F8F00235C
:1039A000236088F31088D7E7280100D00040054045
:1039B0003C70054007F4002084F3002068220020BA
:1039C000D03F054010B5034B01001800024AFEF736
:1039D00025FF10BDF2F3002058BF011010B5034BB6
:1039E00001001800FEF78AFF10BDC046F2F3002068
:1039F00010B5064B064C82B0010000930022032351
:103A00002000FEF72DFF02B010BDC0467CBF0110A4
:103A1000F2F30020034B596A0A00986A596A8A42F5
:103A2000FAD1704700400540064A536A9942FCD8D3
:103A300007D1044B02E05A6A914202D19A6A82424B
:103A4000F9D370470040054070B504000D00EFF356
:103A5000108672B61A4A1368002BFCD0BFF35F8F32
:103A6000002D1BD02000FEF7C1FF164981420AD06D
:103A70002000FEF7C3FF01212000FEF787FF01238E
:103A8000A340114A1360114BA400E550BFF35F8FB0
:103A900000220B4B1A6086F3108870BD0121A140F3
:103AA0000A4BA200D5500A4B20001A788A430549D8
:103AB0001A70FFF7BFF800212000FEF767FFE5E767
:103AC000280100D009390010386005406822002024
:103AD00007F40020F0B54F46D6464646C0B507006D
:103AE0002C4C616A0D00A66A616AA942FAD18B4228
:103AF00008D805D00120E0BCBA46B146A846F0BDC2
:103B0000B242F7D9EFF3108A72B623480168002950
:103B1000FCD0BFF35F8F0125BD4020491D4C884676
:103B2000097889462943C9B28C46414660460870E7
:103B3000391D890065630A511949B8004350216A4B
:103B40000020294219D0616A0800A66A616A814290
:103B5000FAD18B4219D801D1B24216D8CC4516D031
:103B60000C4B1F221D625D6301233A4093400D4AB6
:103B70000120136043464A461A70BFF35F8F00224C
:103B8000054B1A608AF31088B5E70020F5E701209D
:103B9000F3E7C04600400540280100D007F40020AC
:103BA00084F3002080E200E0EFF3108C72B60A4943
:103BB0000B68002BFCD0BFF35F8F01238340074AC3
:103BC0000748136202789A430270BFF35F8F0023A5
:103BD0000B608CF310887047280100D0004005402E
:103BE00007F40020EFF3108C72B60A490B68002B23
:103BF000FCD0BFF35F8F01238340074802781A434C
:103C00000270BFF35F8F00220A608CF31088034AB2
:103C100013607047280100D007F400203C60054085
:103C200070B5050014001600002915D00C00002AFC
:103C300012D080686B689847296800280ED07300FE
:103C40009B196200033B1219CB18033A9C70881829
:103C50008A5C002A15D10670200070BD63001B1914
:103C60007200033B9219CB18033A9E7088188A5C45
:103C7000002A02D104703400EEE75A700470340058
:103C8000EAE75A700670E7E7F8B5CE464746894638
:103C900080B5102107000120904602F0F1FB0321BE
:103CA0000500380002F0ECFB4B466B604346AB600E
:103CB0000023FCB26B730133060028602C73AB73D6
:103CC000EC73012C06D9421C0133DBB213700332B2
:103CD0009C42F9D1FF233B405A00D318F618002329
:103CE000033E28007370C0BCB946B046F8BDC0465C
:103CF00030B583600023CCB2437301330473426058
:103D00008373C4730D000068012C06D9421C013373
:103D1000DBB2137003329C42F9D1FF2129404B00E2
:103D20005B18C01800230338437030BD10B5040081
:103D3000006802F0C5FB200002F0C2FB10BDC046C7
:103D4000F8B505000C1E07D0630001681B19033B82
:103D5000CB185A78002A01D12000F8BD50008018F5
:103D60000338091800204F78487021005870280047
:103D7000FFF756FF390006002800FFF7E1FF0400B7
:103D8000002EE9D0002826D031002200A8686B68F8
:103D90009847296800280FD063001B197200033B65
:103DA0009219CB18033A9E7088188A5C002A00D0BA
:103DB0005A7004703400CFE773009B196200033B14
:103DC0001219CB18033A9C7088188A5C002A00D01C
:103DD0005A700670C0E73400BEE7C046F0B55746DB
:103DE0004546DE464E46E0B50D006B0001685B19A6
:103DF000DF1E0400C85D83B00192CA19002850D0AC
:103E000043001B18033BCB185E78B446002E1AD132
:103E1000019E002E42D0E67B002E04D073009B1939
:103E2000CB18033B5D70A37B002B00D1A573E5731A
:103E300000282FD10023537003B0F0BCBB46B2461C
:103E4000A946A046F0BD72006244033A8A18517830
:103E500088460021517089465970320001002000C7
:103E6000FFF7DEFE43468246002B07D05B00216849
:103E70004344033BCB185A78002A16D14246514698
:103E80002000FFF7CDFE2168019BCA19002BC2D18B
:103E90000028CFD043001B18033BCB18002199709A
:103EA000C8E7019B002BB6D1C4E750008018033847
:103EB00009184878834648464870587041462000A3
:103EC000FFF7AEFE594680462000FFF739FF414616
:103ED00002002000FFF7A4FE8046CFE7F0B557466A
:103EE0004546DE464E46E0B583B00191457B040071
:103EF0006B0000685B19DF1EC15DC219002952D03A
:103F00004B005B18033BC3185E78B446002E1CD1EF
:103F1000019E002E44D0E67B002E04D073009B1936
:103F2000C318033B5D70A37B002B00D1A573E57321
:103F3000002931D1002328005370617303B0F0BC15
:103F4000BB46B246A946A046F0BD72006244033AA1
:103F50008218507880460020507081465870320098
:103F60002000FFF75DFE43468246002B07D05B0032
:103F700021684344033BCB185A78002A17D14246A4
:103F800051462000FFF74CFE019B01002068C2193A
:103F9000002BC0D10029CDD04B005B18033BC318C8
:103FA00000209870C6E7019B002BB4D1C2E75000F7
:103FB0008018033809184878834648464870587076
:103FC00041462000FFF72CFE594680462000FFF7AF
:103FD000B7FE414602002000FFF722FE8046CEE7F2
:103FE00070B5040000292CD0437B8B422ED005688D
:103FF00048004018033828188278002A21D053003E
:104000009B18033BEA5CEE188A4202D11BE0002AAF
:1040100008D053009B18033BEB185A788A42F6D11C
:1040200042785A7000230122837043702000FFF70A
:10403000D5FE617B02002000FFF7F2FD60730120D6
:1040400000E0002070BD43783370EBE701221900D7
:10405000FFF7C4FE60730120F4E7C04610B50C20E2
:1040600082B000F0B3F9FEF7BBFB00280ED08A4BFC
:104070008A4A1A605A609A60DA601A615A619A61D3
:10408000DA611A62864A5A6202B010BD854CA06796
:1040900000F0F2F90122844B1A60636C012BFCD111
:1040A0000322824B1A607F4A936B012BFCD10133B0
:1040B00001217F4A7F480093043300F037F905233C
:1040C0007D4A009301217D4800F030F97C4B5A680D
:1040D000FF2A02D8802252005A608022734B6E4C15
:1040E00012011A602169002907D0606901F0E4FD1E
:1040F000013043001B18033BFDD2E022704B714896
:1041000019680A40026002221968514001320A40CF
:10411000042102609A681142FCD080216A4A090198
:104120001160802252005A60684B2361684B5968C5
:10413000FF2900D85A60032201215B4B1A60644AB0
:1041400093681942FCD0E023106803406148036083
:10415000126803234A40022113405D4A03609368BA
:104160001942FCD080215C4B0901196080215B4B16
:104170004900516063615A4B5A68FF2A00D8596060
:104180008022584B12011A60E169002907D060694A
:1041900001F092FD013043001B18033BFDD2E023E8
:1041A0004F4A11680B4050490B6080214F4B090169
:1041B00019608021394B49005160E3614C4B5A68CA
:1041C000FF2A00D8596080224A4B12011A60216AE6
:1041D000002907D0606901F06FFD013043001B1812
:1041E000033BFDD2E023424A11680B4042490B6079
:1041F0008021424B0901196080235B0053608022BB
:10420000264BD20223623E4B5968914200D25A603B
:1042100080223C4B12011A60616A002907D0606954
:1042200001F04AFD013043001B18033BFDD2E0239F
:10423000334A11680B4034490B608021334B09012C
:1042400019608023DB025360154B6362304B5A6860
:10425000FF2A02D8802252005A6080222D4B120180
:104260001A60A169002907D0606901F025FD0130BD
:1042700043001B18033BFDD2E023254A11680B4085
:1042800025490B608021254B0901196080235B00C3
:104290005360124BA361F7E6C4240020006CDC02DB
:1042A0001BB70000008000403CB0004030B0004030
:1042B000002F685900800240008C864700C00240F1
:1042C000308000403090004030A00040001BB7001C
:1042D0003C8000403C9000403CA0004040597307A7
:1042E0005480004054B000405490004054A000401E
:1042F0006080004060B000406090004060A00040DE
:104300006C8000406CB000406C9000406CA000409D
:104310004880004048B000404890004048A000401D
:10432000014B8000C0587047C4240020F8B5040039
:1043300021481D0017000E0001F0BEFC01003800EE
:1043400001F0BAFC069B29041B0319432368002BC8
:1043500020DB1A4B1A4DE21853425A4180235B016D
:104360009C461203174B62441A60174B1A601700E1
:10437000AB689F43FBD1C022231D92011A43212326
:104380002660A06013602368002BFCDA0823E1603C
:104390001360F8BD3F2322681340B342D9D1A3680C
:1043A0001B051B0D8342D4D1EE22E368D2021340D9
:1043B0008B42CED1EDE7C046001BB7000040FDBFE9
:1043C00000C0004000E0004000F000408023024AAE
:1043D0009B000343D36270470080054010B5140072
:1043E00080221C4BD2051A6000281AD001231A4AD9
:1043F00018431A4BDA611A4A42401A6259629862AB
:104400008022144BD2051A601649174A1160E02227
:10441000D2041A60002C07D18022144B12061A60B5
:1044200010BD0E4BD861EBE763011B1B9A00802384
:10443000121912015B049A4208D20D4B1A60074B05
:104440005A608022094BD2051A60E9E7084B094AF5
:104450001A60F4E700B00540D3C007B00080054003
:104460002D3FF84FFCFF01000820014000A005404F
:1044700010380020FFFFFF00AA23064A1B0113602B
:104480002F230549D360054B19605368002BFCDAD4
:104490007047C0460040024000B0FA000060024091
:1044A0002C4B2D4A70B51A602C4A2D4B2D491A60A1
:1044B00014008B689C43FBD12B4D2C4EB54208D287
:1044C000013E761BB60808CD984723000134B3425D
:1044D000F9D1FFF7C3FD264A214B1A60214A9368A0
:1044E000DB43DB01DD09002BF9D14022214B224CBB
:1044F000224E9A675A671A67DA66B44208D223686E
:104500002000002B20D00834FEF732FDB442F6D351
:104510001B4C1C4EC022B168200001F0EFFFB460BC
:10452000FEF708FAFEF7CCFCFEF7E0FE164C174E3D
:10453000B44208D2013E361BB60808CC98472B007F
:1045400001359E42F9D170BD0834FEF703FDB44237
:10455000D5D3DDE700E00040BFCDFBFEFE7F3C0091
:1045600000F0004000C00040A01A0020B01A002057
:10457000FFFFFF0100F00140901A0020A01A002068
:104580000000002000ED00E0B01A0020B81A002062
:1045900000BEFDE7094A03001068002805D008495D
:1045A000C3188B4207D81360704706480449C318E4
:1045B00010608B42F7D901204042F5E7D433002048
:1045C000000004200CF4002010B5FFF7E1FFC04606
:1045D0000FB400B5084883B002F0F6F8049B002B36
:1045E00007D005A91800019101F0E6FA034802F08E
:1045F000EBF80120FFF7CCFF90BF0110CCBB0110FE
:1046000010B50148FFF7E4FFA0BF01109A4200D2A5
:10461000885470477047C046F8B557464546DE4651
:104620004E46E0B598460A9B06009A460D9B0F0041
:10463000934615009B0710D10B9B0C9A93420CD20A
:1046400013005C460B9A9D1A5D44220043460134D8
:1046500039002020B047A542F7D10B9C6319002CEC
:1046600009D01D0053462A1B013C185D3900434602
:10467000B047002CF6D10D9B9B070ED55B46EC1A7C
:104680000C9BA34209D999462A00434639002020B1
:104690000134B0470135A145F6D82800F0BCBB462F
:1046A000B246A946A046F8BDF0B54F464646D646A6
:1046B000C0B584B098460EAB1B78129F99469446BD
:1046C0000D9C109B119EBA0725D4002E61D19C42EF
:1046D00000D3C0E001223A4092461F2C00D9B9E035
:1046E0000C9A551E302201E0202C03D001342A55AB
:1046F000A342F9D85246002A0DD0A6420BD90C9AF3
:10470000551E3022202C02D155E0202C53D00134EC
:104710002A55B442F9D1FA062DD57A0554D4002C85
:104720004ED10F9B102B00D188E00F9B022B19D08C
:1047300030230C9A012413704B46002B20D02D23DC
:104740000C9A135501340C9B624600930397434621
:1047500002960194FFF760FF04B0E0BCBA46B14690
:10476000A846F0BD01240C9A6033137030220C9BD4
:104770001B191A700134202CE5D04B46002BDED1DA
:104780007B0730D43B07DED520230C9A1355013428
:10479000D9E7012215003D40AA463A421CD04A46BC
:1047A000002A2BD10C323A4228D19C42A5D21F2C90
:1047B00096D9202E15D92024FA06C4D57A0503D41B
:1047C000A3421DD0B4421BD00F9B102B23D0022B31
:1047D0000ED0202CB7D0C9E79C429CD21F2C00D809
:1047E0007EE7202497E72B230C9A13550134AAE780
:1047F000202CA8D00C9B1B19013438E0013ED4E7D3
:10480000631E012C00D18CE70F9A102A25D0022AB2
:104810002AD01C00AAE7BB0607D4202C93D00C9BFF
:104820001A19013478231370D3E7202C00D18AE7BA
:1048300058220C9B1B191A700134CAE7BB0604D41A
:1048400078230C9A0124137090E758230C9A0124C2
:1048500013708BE7202400265DE7023CBA06E7D4FC
:104860000C9A12191C00DDE70C9A924653446222FE
:104870001A70AEE710B5002800D110BD01F058FF46
:10488000FBE7C0460B0010B5002802D049681B6842
:10489000984710BDF0B5DE4657464E464546E0B552
:1048A0009BB09B46249B89469846259B0B900C9277
:1048B0004046424619009A4601F0B7FC002800D055
:1048C000D8E0012240465146774B524201F0A8FC05
:1048D000002800D0CEE0012240465146734B5242A0
:1048E00001F088FC002800D0C4E0002200234046EC
:1048F000514601F07FFC002800D0B9E14246534602
:104900000A9209938023289ADB001A400E92289A73
:104910001A4201D1062326930A9A099B16001343D3
:1049200000D0C7E0289B002500261B0500D49BE192
:1049300000230D93269A0D9B9A4200DC9FE1D31A27
:10494000013B26938023289ADB001A43002300278B
:1049500028920D93279B0024BB4200D9DC1B022325
:10496000289A1A400E92289A134203D07B427B4128
:104970005B421C400D9B002B07D00A9809992A0026
:10498000330001F0DEFB0A9009910022002340462B
:10499000514601F02FFC002805D0802000068446F7
:1049A000099961440991289A414B0B9D1340049346
:1049B000269B0A9A0293099B03940092019349460D
:1049C0005B4628000C9A00F08BF90400002F62D09F
:1049D000289B220098061F23C0179843631C984603
:1049E00049465B466530A8470D9A0025D317D41871
:1049F0005C40D30F9A46013F01E0202D13D00AAA54
:104A000094461F23200063440A2101355E1901F0FA
:104A100053F93031317020000A2101F04DF92600A0
:104A20000400092EE9D805230693002304930A33D2
:104A30000393534605970B9F029312AB0093424694
:104A40005B46494638000195FFF72EFE0E9B040099
:104A5000002B20D00C9BC51A279BAB421BD91E00F4
:104A600022005B46494620200135B8470134AE425A
:104A7000F6D810E0289B42460493279B49460393AF
:104A8000269B0B9802935346009201935B460C9A27
:104A900000F026F9040020001BB0F0BCBB46B24673
:104AA000A946A046F0BDC046FFFFEF7FFFFFEFFF26
:104AB000FFF7FFFF734B099F9C467800400D604451
:104AC00001F0C6FB704A714B01F055FB704A714B07
:104AD00001F032FB3B03704A1B0B1A4304000D002C
:104AE000300011006D4B002201F021FB6C4A6D4B30
:104AF00001F041FB02000B002000290001F01CFB2B
:104B000001F0BEFB0D9001F0A3FB674A674B040068
:104B10000D0001F030FB0022654B01F00DFB01F0B0
:104B2000AFFB644A0600644B2000290001F023FB20
:104B3000040030000D000F9601F08AFB5F4A604BC5
:104B400001F019FB02000B002000290001F0EFFA30
:104B500002000B0006000F0001F00DFB3200040004
:104B60000D003B003000390001F0E6FA0022109001
:104B70001191544B2000290001F0E3FA0022524B1E
:104B800001F0DAFA02000B002000290001F0D9FA46
:104B900000224E4B01F0D0FA02000B002000290049
:104BA00001F0CFFA0D008021040032003B0000200C
:104BB000C90501F0BCFA02000B002000290001F039
:104BC000BBFA02000B001098119901F0BAFA00220A
:104BD000314B01F0B1FA3E4B0F9C9C4664440022DD
:104BE000230501F0C8FA05000E0002000B000A9828
:104BF000099901F0FFFA00280AD00D9B2800013B1B
:104C000031000D930022304B01F09BFA05000E009D
:104C1000C6270D992B0063318F42BF4128997F42EF
:104C20000437090500D495E6334300D182E6099C98
:104C3000284A2100284B0A9801F0EAFA002808D0F7
:104C400000222100254B0A9801F0D4FA002800D058
:104C500070E6269B002B00D17CE60E9B5A1E9341EA
:104C6000269AD31A269375E6002304270D9371E63E
:104C700043460A9380231B065344099342E60023CC
:104C800026935FE601FCFFFFFB799F501344D33F5F
:104C9000B3C8608B288AC63F0000F03F0000F83F91
:104CA00061436F63A787D23F71A379094F930A408D
:104CB0000000E03F1655B5BBB16B0240EF39FAFE7C
:104CC000422EE63F00002C40000024400000184027
:104CD000FF0300002D431CEBE2361A3F80842E4177
:104CE000F0B54E46DE4657464546E0B597B0994684
:104CF000209E219F229B8346984607910C923B0061
:104D000032003000390001F090FA002800D0ADE107
:104D1000012230003900CC4B524201F06BFA0028DE
:104D200000D003E1012230003900C84B524201F0AB
:104D300077FA002800D0D9E0002230003900C44BB7
:104D400001F06EFA002800D0BBE0002230003900EC
:104D5000C04B01F04FFA002800D0B2E0002200233F
:104D60003000390001F046FA002800D0D3E00023DB
:104D70000D93249B5B0501D40623984608AB9C4603
:104D80001722002430234146624404E001341355C5
:104D90000139202C01D00929F8D888463000390083
:104DA00001F06EFA4246AC4BD2009B181A685B6861
:104DB00005000892099301F04BFA02000B00300045
:104DC000390001F0B4F9089A099B01F0D4F90A906E
:104DD0000B9101F079FA824601F036FA02000B00DD
:104DE0000A980B9901F0A3F900229C4B0A900B91B1
:104DF00001F016FA002800D1E2E001239C46E244CB
:104E0000504601F021FA02000B000898099901F0C0
:104E1000F7F9002802D000239A4601354346002BBB
:104E200000D18BE008AB17269C4608956644554692
:104E300014E001235B4243440A2128009A4600F013
:104E40003BFF013430313719397028000A2100F056
:104E500033FF092D00D8D0E0D0460500202CE8D142
:104E60000EAB98460323249A1340012B00D0E8E0B0
:104E7000239A2023002A1DD00D9A002A00D0FDE09D
:104E800024990C320A4215D0239A013A2392239A8C
:104E90009A4200D805E108AA9446172130226144BD
:104EA000202B07D023980133CA54834200D1E9E074
:104EB000202BF7D1249A01930392239A434602921E
:104EC0001EE0249B58460493239B0096019703936E
:104ED00043460C9A029307994B46FFF7DBFC17B049
:104EE000F0BCBB46B246A946A046F0BD249B5B077A
:104EF0000ED403225A4B24990192039123990291D3
:104F0000009358464B460C9A0799FFF785FBE6E756
:104F10000422544BEFE73B0032000020002101F057
:104F200006F9012306000F000D9322E7249B03934B
:104F3000239B0293042301934B4BE1E7280001F0EC
:104F400087F902000B003000390001F0F0F8434B04
:104F5000002206000F0001F04DF90EAB9846002824
:104F60000AD10022300039003C4B01F059F90028E9
:104F700002D1EB0700D50135202C00D172E708AA39
:104F800094461723280063440A2101341E1900F0B7
:104F90006BFE3031280031700A2100F065FE051EDD
:104FA000EAD10323249A1340012B6DD0202C48D042
:104FB0000D9B002B14D02D224146631C0A5579E726
:104FC00000220A980B99254B01F014F9002800D013
:104FD00024E75346002B30D101239C46E2441DE7D1
:104FE000249B5B0724D4249A2300120700D461E792
:104FF0002022414601330A555CE75746089D202C84
:1050000000D12DE7220030214046002F09D0013287
:10501000B154202A00D123E7831A013BE318002B67
:10502000F5D10EAB98462E234146541C8B54A3E772
:105030002B224146631C0A553CE7DB0700D4EDE612
:10504000CAE7202336E7C046FFFFEFFFFFFFEF7FF1
:1050500065CDCD4165CDCDC160C101100000E03FFF
:10506000B4BF0110ACBF0110BCBF0110249B03935F
:10507000239B0293032301930C4B41E7239A013AAC
:10508000239217E7040091E7239B002B8ED00D9B02
:10509000002B08D10C2224992300114200D1F6E6FE
:1050A000F2E61C0082E72300EEE6C046B8BF01101E
:1050B000F0B5DE4657464E464546E0B5A1B01C0069
:1050C0002A9B92460993B94AB94B81468B461A608E
:1050D000002900D12BE120780027002800D12DE104
:1050E000B44B5E460893B44B0C9309E03A00534628
:1050F00031007D1CC8472F0001342078002871D072
:105100002528F3D110239B460C3B9846023B0022F6
:105110009C460134207825000300203BDBB2102B95
:1051200003D808999B00CB589F460300303B092BBE
:105130006BD9002398462A2800D18AE000230A93DD
:105140002E2800D176E00300683BDBB2122B1CD87E
:105150009A499B00CB589F46012301341A43D9E753
:10516000634601341A43D5E7434601341A43D1E775
:105170005B4601341A43CDE7082301341A43C9E7DB
:1051800080235B0068781A43013567280AD82428F1
:105190001DD90300253BDBB2422B18D80C999B008C
:1051A000CB589F460300693BDBB20F2B0FD8012180
:1051B000834C9940A4460C400B946446214200D095
:1051C00002E20A2B00D1E1E0072B00D1B8E07B1C02
:1051D00098463A00534631006C1CC8472078474631
:1051E00000288DD1B3463C00BA4501D853465F1E16
:1051F00053463A0059460020C847200021B0F0BC71
:10520000BB46B246A946A046F0BD00230100980067
:10521000C0180135400040182978030008003038D4
:10522000303B0928F3D99846002308000A932E281A
:1052300000D088E780236878DB001A430300303B06
:10524000691C092B00D807E12A2800D116E10D00BE
:1052500079E7099B02CB8846002903DB6078099334
:10526000651C6BE702210A43414649428846607843
:105270000993651C62E768786C2800D123E28023DB
:105280005B001A43013580E780239B0068781A434E
:1052900001357AE76878682800D11AE28023013561
:1052A0001A4372E7462800D18BE10721099B04923B
:1052B000424607338B43190003920A9A48460292EA
:1052C0000CC90092019309913A0053463100FFF74F
:1052D00007FD6C1C070010E77B1C98463A005346FC
:1052E00031002520C84747466C1C06E7920700D4CA
:1052F00031E2099B3A0001CB31009B46C0B25346D4
:10530000C84743467C1C4744012B00D8FBE2A84613
:105310004D4622005346013431002020A847BC42AC
:10532000F7D1A9465B46454609936C1CE5E6254B3B
:10533000207899460027002800D0D1E6002453E7C2
:10534000099B190008C98846002B00D1A6E021213D
:105350000A43934610A98C461F220F2162440995E7
:105360008C4615000B9C02E0202C0CD013006046EC
:10537000184001003731092800D807390134295570
:105380001A090F2BF0D8099D0B9490E0099B02CBD2
:1053900012930A9B8B46002B7AD10878022149424E
:1053A00000281AD001315C4659440FE0B15000107A
:1053B00008380020C4BF011054C0011008C00110FB
:1053C00041900000154600108C4203D063780134F0
:1053D000002BF9D15B46E31A0B9380231100DB000D
:1053E000194009911A4204D00A9B0B99994200D99D
:1053F0000B930223190011400D91134200D18BE150
:10540000002800D173E1099B002B00D142E10A9BE7
:105410003A009C465B46BC44DB1B64469B464B46BD
:105420000994A9461D0009E053463100571CA847BE
:105430005B46D85D002800D155E13A009442F3D193
:105440002B004D469946099F0D9B002B00D04EE145
:10545000129B6C1C099350E6002304009800C018AE
:105460000131400000190C78030020003038303B37
:105470000928F3D920000D000A9364E6099B023540
:1054800001CBC143C91708400A90099328785AE60E
:1054900008780028A1D00A9B591E83E7102110002C
:1054A0008843113108438346520500D452E75B46D6
:1054B0000693082305930A9B3A0004931023039351
:1054C000002302930B9B3100019318AB00934846D5
:1054D0005346FFF7E9F8434607006C1C09930CE6B6
:1054E000202301009943472904D180231B011A433B
:1054F00002239843452801D120231A430721099B01
:105500000492424607338B43190003920A9A484695
:1055100002920CC90092019309913A00534631005E
:10552000FFF7B8F96C1C0700E7E5622800D1F6E147
:105530006F2800D132E1582800D1CFE010239A43E0
:10554000063B0D93692800D024E10B92530546D504
:1055500001230B9A9A430B92692840D064283ED0CD
:105560000B9A802311009B0019408B461A4200D0F1
:10557000DCE1802314005B001C401A4200D07BE277
:1055800013005B0600D48BE1FF22099B02CB114084
:105590008B4609935B46002B00D08CE10B9A1033AD
:1055A000110099430B91520500D484E100240B9B18
:1055B0000693434605930A9B04930D9B0393002394
:1055C00061E120231A4370E610230D937828ACD1B3
:1055D0000C23110099430B915205B9D4BCE70B9AE7
:1055E000802311009B0019408B461A4200D0D8E05E
:1055F000802314005B001C401A4200D0E2E113003B
:105600005B0600D527E1130009991B0600D495E23B
:1056100008C91BB2D8171A18424092B20991934692
:10562000DA0F1392002B09D1802310220B99DB0093
:105630000B4091430B91002B00D01BE10B9A61238F
:10564000920600D54123DBB210A90A3B1F228C46EB
:10565000129343466244A84614970D9D5F461593E6
:10566000B34616000AE03033DBB201343355AF42A3
:1056700000D24EE1202C00D14BE107002900380078
:1056800000F01AFBCBB20929EDD9129A9446634473
:10569000DBB2EAE75B46DB1B9B460B9B4C4699461D
:1056A0005346AA461D003A002B003100A0475B4636
:1056B0000137D85D0028F6D14B460B932B00A1464D
:1056C00055469A46C0E6C0239B00A8781A43023587
:1056D0005BE5C023A8781A43023556E520231A4318
:1056E000103B0D9374E72B004D469946ACE60B9B9F
:1056F000BB46984500D8ABE647445C46A8464D46B5
:10570000FF1A22005346013431002020A847BC4232
:10571000F7D1A94645469BE60B9A531C904500D805
:1057200022E24346DB199C1A4B46A9461D003A006B
:105730005346013731002020A847A742F7D12B005C
:105740004D469946434601330B935B461878002833
:1057500000D058E67CE64346012B00D802E27C1ECE
:105760004444A8464D463A005346013731002020B4
:10577000A847A742F7D1A9464546099B220001CB7D
:1057800031009846C0B25346C8474346671C099348
:105790006C1CB2E4642800D1D7E619E708230D9306
:1057A00016E70722099B07339343013294469C4432
:1057B000624609920CCB9C46DB171093119310980C
:1057C0001199030053400E9364460B0063400F93FE
:1057D0000E9B0F9C1B1A8C410E930F946346DB0F9C
:1057E000139300239B4663461A433BD00B9A6123D5
:1057F000920600D54123DBB20A3B1293434610A91F
:105800001F228C46002415934B466244B1461497E0
:10581000169527000E9C0F9D90460D9E17930CE049
:105820003032D2B243460137DA55AB4500D177E189
:10583000202F00D177E104000D003200002320006A
:10584000290000F077FAD2B2092AE9D9129B9C46C6
:105850006244D2B2E6E7FF22099908C913401A0050
:105860000991DCE60B9A10231100994300240B9157
:105870005205BBD50B9B0693434605930A9B0493A5
:105880000D9B0393139B029318AB3A000194009372
:10589000310053464846FEF707FF6C1C07002CE416
:1058A00013001B0600D458E1099B04CB1204120C10
:1058B000934609936EE60B9A6123920600D5412325
:1058C00010A91F228C46DBB262440A3B1397149640
:1058D0005F461600AB4612930D9D08E03033DBB2F5
:1058E00001343355AF421DD3202C1BD007002900B3
:1058F000380000F0E1F9CBB20929EFD9129A9446A9
:105900006344DBB2ECE75B46270009936C1CFFF7AE
:10591000F4FB159B45465E469846149FAAE7022372
:105920000D9355E65D46139F149E40E60722099BA2
:1059300007339343013294469C44624609921A68A5
:105940005B6810009B4613005A46134307D10B9A1D
:105950001033110099430B91520500D526E60B9A9E
:105960006123920600D54123DBB210A90A3B1F2216
:105970008C461293434662441397159500245D4666
:105980000700B34690460D9E14930DE03032D2B21C
:10599000434601341A550023AB4200D1D4E0202CF9
:1059A00000D1D4E007000D003200002338002900A8
:1059B00000F0C0F9D2B2092AE8D9129B9C46624491
:1059C000D2B2E5E7099B1A0008CA1592DA179C18AB
:1059D0005440DA0F1492002B08D1802310220B9927
:1059E000DB000B4091430B91002B2BD10B9A6123D1
:1059F000920600D5412310A91F228C46DBB26244D7
:105A00000A3B129713965F461600AB4609930D9D0D
:105A100008E03033DBB20137F355AC420ED3202F10
:105A20000CD004002900200000F046F9CBB209296F
:105A3000EFD9099A94466344DBB2ECE75D46139EC6
:105A4000BB46129F0B9B3A000693434605930A9B65
:105A5000310004930D9B48460393149B6C1C0293E6
:105A60005B46019318AB00935346FEF71DFE159B52
:105A700007000993FFF741FB099B10CB1493002CFF
:105A800008D18023DB0011001340102291430B91B9
:105A9000002B2BD10B9A6123920600D5412310A92C
:105AA0001F228C46DBB262440A3B129713965F4674
:105AB0001600AB4609930D9D08E03033DBB2013789
:105AC000F355AC420ED3202F0CD004002900200047
:105AD00000F0F2F8CBB20929EFD9099A9446634451
